{
  "contractName": "MessageHelper",
  "abi": [
    {
      "anonymous": false,
      "inputs": [
        {
          "indexed": false,
          "name": "b32",
          "type": "bytes32"
        },
        {
          "indexed": false,
          "name": "number",
          "type": "uint256"
        },
        {
          "indexed": false,
          "name": "text",
          "type": "string"
        }
      ],
      "name": "Show",
      "type": "event"
    },
    {
      "anonymous": false,
      "inputs": [
        {
          "indexed": false,
          "name": "b32",
          "type": "bytes32"
        },
        {
          "indexed": false,
          "name": "number",
          "type": "uint256"
        },
        {
          "indexed": false,
          "name": "text",
          "type": "string"
        },
        {
          "indexed": false,
          "name": "value",
          "type": "uint256"
        }
      ],
      "name": "Buy",
      "type": "event"
    },
    {
      "constant": false,
      "inputs": [
        {
          "name": "message",
          "type": "bytes32"
        },
        {
          "name": "number",
          "type": "uint256"
        },
        {
          "name": "text",
          "type": "string"
        }
      ],
      "name": "showMessage",
      "outputs": [
        {
          "name": "",
          "type": "bool"
        }
      ],
      "payable": false,
      "stateMutability": "nonpayable",
      "type": "function"
    },
    {
      "constant": false,
      "inputs": [
        {
          "name": "message",
          "type": "bytes32"
        },
        {
          "name": "number",
          "type": "uint256"
        },
        {
          "name": "text",
          "type": "string"
        }
      ],
      "name": "buyMessage",
      "outputs": [
        {
          "name": "",
          "type": "bool"
        }
      ],
      "payable": true,
      "stateMutability": "payable",
      "type": "function"
    },
    {
      "constant": false,
      "inputs": [],
      "name": "fail",
      "outputs": [],
      "payable": false,
      "stateMutability": "nonpayable",
      "type": "function"
    },
    {
      "constant": false,
      "inputs": [
        {
          "name": "to",
          "type": "address"
        },
        {
          "name": "data",
          "type": "bytes"
        }
      ],
      "name": "call",
      "outputs": [
        {
          "name": "",
          "type": "bool"
        }
      ],
      "payable": false,
      "stateMutability": "nonpayable",
      "type": "function"
    }
  ],
  "bytecode": "0x608060405234801561001057600080fd5b506104ab806100206000396000f300608060405260043610610062576000357c0100000000000000000000000000000000000000000000000000000000900463ffffffff1680631b8b921d146100675780632b4f79b3146101085780636e2e2e4d14610194578063a9cc47181461022d575b600080fd5b34801561007357600080fd5b506100ee600480360381019080803573ffffffffffffffffffffffffffffffffffffffff169060200190929190803590602001908201803590602001908080601f0160208091040260200160405190810160405280939291908181526020018383808284378201915050505050509192919290505050610244565b604051808215151515815260200191505060405180910390f35b61017a600480360381019080803560001916906020019092919080359060200190929190803590602001908201803590602001908080601f01602080910402602001604051908101604052809392919081815260200183838082843782019150505050505091929192905050506102e6565b604051808215151515815260200191505060405180910390f35b3480156101a057600080fd5b50610213600480360381019080803560001916906020019092919080359060200190929190803590602001908201803590602001908080601f01602080910402602001604051908101604052809392919081815260200183838082843782019150505050505091929192905050506103af565b604051808215151515815260200191505060405180910390f35b34801561023957600080fd5b50610242610470565b005b60008273ffffffffffffffffffffffffffffffffffffffff168260405180828051906020019080838360005b8381101561028b578082015181840152602081019050610270565b50505050905090810190601f1680156102b85780820380516001836020036101000a031916815260200191505b509150506000604051808303816000865af1915050156102db57600190506102e0565b600090505b92915050565b60007fda40d54d2a11c5b6ef67eb6825b70e6647cc422fa8b2f4e4ce72441d67ad2ff28484843460405180856000191660001916815260200184815260200180602001838152602001828103825284818151815260200191508051906020019080838360005b8381101561036757808201518184015260208101905061034c565b50505050905090810190601f1680156103945780820380516001836020036101000a031916815260200191505b509550505050505060405180910390a1600190509392505050565b60007f53f52bd5d580b08520e25370d30be415b61c6ff8e378023685ca03eec817b10f84848460405180846000191660001916815260200183815260200180602001828103825283818151815260200191508051906020019080838360005b8381101561042957808201518184015260208101905061040e565b50505050905090810190601f1680156104565780820380516001836020036101000a031916815260200191505b5094505050505060405180910390a1600190509392505050565b6000151561047d57600080fd5b5600a165627a7a72305820172861b7521107e12dbf89fa6f4b34fdfde5b2f4da201c4657f866f19c4857200029",
  "source": "pragma solidity ^0.4.23;\n\n\ncontract MessageHelper {\n\n  event Show(bytes32 b32, uint256 number, string text);\n  event Buy(bytes32 b32, uint256 number, string text, uint256 value);\n\n  function showMessage( bytes32 message, uint256 number, string text ) public returns (bool) {\n    emit Show(message, number, text);\n    return true;\n  }\n\n  function buyMessage( bytes32 message, uint256 number, string text ) public payable returns (bool) {\n    emit Buy(\n             message,\n             number,\n             text,\n             msg.value);\n    return true;\n  }\n\n  function fail() public {\n    require(false);\n  }\n\n  function call(address to, bytes data) public returns (bool) {\n    // solium-disable-next-line security/no-low-level-calls\n    if (to.call(data))\n      return true;\n    else\n      return false;\n  }\n\n}\n",
  "sourcePath": "/Users/adam/work/vetxtoken/node_modules/vetx-token/contracts/mocks/MessageHelper.sol",
  "compiler": {
    "name": "solc",
    "version": "0.4.24+commit.e67f0147.Emscripten.clang"
  },
  "schemaVersion": "2.0.1",
  "updatedAt": "2018-07-03T19:54:37.210Z"
}